{"abi":[{"type":"constructor","inputs":[],"stateMutability":"nonpayable"},{"type":"function","name":"getLatest","inputs":[],"outputs":[{"name":"value","type":"uint256","internalType":"uint256"},{"name":"timestamp","type":"uint256","internalType":"uint256"},{"name":"_route","type":"string","internalType":"string"}],"stateMutability":"view"},{"type":"function","name":"latestTimestamp","inputs":[],"outputs":[{"name":"","type":"uint256","internalType":"uint256"}],"stateMutability":"view"},{"type":"function","name":"latestValue","inputs":[],"outputs":[{"name":"","type":"uint256","internalType":"uint256"}],"stateMutability":"view"},{"type":"function","name":"owner","inputs":[],"outputs":[{"name":"","type":"address","internalType":"address"}],"stateMutability":"view"},{"type":"function","name":"renounceOwnership","inputs":[],"outputs":[],"stateMutability":"nonpayable"},{"type":"function","name":"route","inputs":[],"outputs":[{"name":"","type":"string","internalType":"string"}],"stateMutability":"view"},{"type":"function","name":"transferOwnership","inputs":[{"name":"newOwner","type":"address","internalType":"address"}],"outputs":[],"stateMutability":"nonpayable"},{"type":"function","name":"updatePrice","inputs":[{"name":"newValue","type":"uint256","internalType":"uint256"}],"outputs":[],"stateMutability":"nonpayable"},{"type":"event","name":"OwnershipTransferred","inputs":[{"name":"previousOwner","type":"address","indexed":true,"internalType":"address"},{"name":"newOwner","type":"address","indexed":true,"internalType":"address"}],"anonymous":false},{"type":"event","name":"PriceUpdated","inputs":[{"name":"value","type":"uint256","indexed":false,"internalType":"uint256"},{"name":"timestamp","type":"uint256","indexed":false,"internalType":"uint256"}],"anonymous":false},{"type":"error","name":"OwnableInvalidOwner","inputs":[{"name":"owner","type":"address","internalType":"address"}]},{"type":"error","name":"OwnableUnauthorizedAccount","inputs":[{"name":"account","type":"address","internalType":"address"}]}],"bytecode":{"object":"0x60806040526040518060400160405280600d81526020017f465245494748545f53482d4c41000000000000000000000000000000000000008152506001908161004891906103d9565b50348015610054575f5ffd5b50335f73ffffffffffffffffffffffffffffffffffffffff168173ffffffffffffffffffffffffffffffffffffffff16036100c6575f6040517f1e4fbdf70000000000000000000000000000000000000000000000000000000081526004016100bd91906104e7565b60405180910390fd5b6100d5816100db60201b60201c565b50610500565b5f5f5f9054906101000a900473ffffffffffffffffffffffffffffffffffffffff169050815f5f6101000a81548173ffffffffffffffffffffffffffffffffffffffff021916908373ffffffffffffffffffffffffffffffffffffffff1602179055508173ffffffffffffffffffffffffffffffffffffffff168173ffffffffffffffffffffffffffffffffffffffff167f8be0079c531659141344cd1fd0a4f28419497f9722a3daafe3b4186f6b6457e060405160405180910390a35050565b5f81519050919050565b7f4e487b71000000000000000000000000000000000000000000000000000000005f52604160045260245ffd5b7f4e487b71000000000000000000000000000000000000000000000000000000005f52602260045260245ffd5b5f600282049050600182168061021757607f821691505b60208210810361022a576102296101d3565b5b50919050565b5f819050815f5260205f209050919050565b5f6020601f8301049050919050565b5f82821b905092915050565b5f6008830261028c7fffffffffffffffffffffffffffffffffffffffffffffffffffffffffffffffff82610251565b6102968683610251565b95508019841693508086168417925050509392505050565b5f819050919050565b5f819050919050565b5f6102da6102d56102d0846102ae565b6102b7565b6102ae565b9050919050565b5f819050919050565b6102f3836102c0565b6103076102ff826102e1565b84845461025d565b825550505050565b5f5f905090565b61031e61030f565b6103298184846102ea565b505050565b5b8181101561034c576103415f82610316565b60018101905061032f565b5050565b601f8211156103915761036281610230565b61036b84610242565b8101602085101561037a578190505b61038e61038685610242565b83018261032e565b50505b505050565b5f82821c905092915050565b5f6103b15f1984600802610396565b1980831691505092915050565b5f6103c983836103a2565b9150826002028217905092915050565b6103e28261019c565b67ffffffffffffffff8111156103fb576103fa6101a6565b5b6104058254610200565b610410828285610350565b5f60209050601f831160018114610441575f841561042f578287015190505b61043985826103be565b8655506104a0565b601f19841661044f86610230565b5f5b8281101561047657848901518255600182019150602085019450602081019050610451565b86831015610493578489015161048f601f8916826103a2565b8355505b6001600288020188555050505b505050505050565b5f73ffffffffffffffffffffffffffffffffffffffff82169050919050565b5f6104d1826104a8565b9050919050565b6104e1816104c7565b82525050565b5f6020820190506104fa5f8301846104d8565b92915050565b6107bb8061050d5f395ff3fe608060405234801561000f575f5ffd5b5060043610610086575f3560e01c80638da5cb5b116100595780638da5cb5b146100ec578063c36af4601461010a578063d96661ef1461012a578063f2fde38b1461014857610086565b80634ab5cc821461008a578063715018a6146100a85780638205bf6a146100b25780638d6cc56d146100d0575b5f5ffd5b610092610164565b60405161009f9190610516565b60405180910390f35b6100b061016a565b005b6100ba61017d565b6040516100c79190610516565b60405180910390f35b6100ea60048036038101906100e5919061055d565b610183565b005b6100f46101d7565b60405161010191906105c7565b60405180910390f35b6101126101fe565b60405161012193929190610650565b60405180910390f35b61013261029f565b60405161013f919061068c565b60405180910390f35b610162600480360381019061015d91906106d6565b61032b565b005b60025481565b6101726103af565b61017b5f610436565b565b60035481565b61018b6103af565b80600281905550426003819055507f945c1c4e99aa89f648fbfe3df471b916f719e16d960fcec0737d4d56bd696838816003546040516101cc929190610701565b60405180910390a150565b5f5f5f9054906101000a900473ffffffffffffffffffffffffffffffffffffffff16905090565b5f5f6060600254600354600180805461021690610755565b80601f016020809104026020016040519081016040528092919081815260200182805461024290610755565b801561028d5780601f106102645761010080835404028352916020019161028d565b820191905f5260205f20905b81548152906001019060200180831161027057829003601f168201915b50505050509050925092509250909192565b600180546102ac90610755565b80601f01602080910402602001604051908101604052809291908181526020018280546102d890610755565b80156103235780601f106102fa57610100808354040283529160200191610323565b820191905f5260205f20905b81548152906001019060200180831161030657829003601f168201915b505050505081565b6103336103af565b5f73ffffffffffffffffffffffffffffffffffffffff168173ffffffffffffffffffffffffffffffffffffffff16036103a3575f6040517f1e4fbdf700000000000000000000000000000000000000000000000000000000815260040161039a91906105c7565b60405180910390fd5b6103ac81610436565b50565b6103b76104f7565b73ffffffffffffffffffffffffffffffffffffffff166103d56101d7565b73ffffffffffffffffffffffffffffffffffffffff1614610434576103f86104f7565b6040517f118cdaa700000000000000000000000000000000000000000000000000000000815260040161042b91906105c7565b60405180910390fd5b565b5f5f5f9054906101000a900473ffffffffffffffffffffffffffffffffffffffff169050815f5f6101000a81548173ffffffffffffffffffffffffffffffffffffffff021916908373ffffffffffffffffffffffffffffffffffffffff1602179055508173ffffffffffffffffffffffffffffffffffffffff168173ffffffffffffffffffffffffffffffffffffffff167f8be0079c531659141344cd1fd0a4f28419497f9722a3daafe3b4186f6b6457e060405160405180910390a35050565b5f33905090565b5f819050919050565b610510816104fe565b82525050565b5f6020820190506105295f830184610507565b92915050565b5f5ffd5b61053c816104fe565b8114610546575f5ffd5b50565b5f8135905061055781610533565b92915050565b5f602082840312156105725761057161052f565b5b5f61057f84828501610549565b91505092915050565b5f73ffffffffffffffffffffffffffffffffffffffff82169050919050565b5f6105b182610588565b9050919050565b6105c1816105a7565b82525050565b5f6020820190506105da5f8301846105b8565b92915050565b5f81519050919050565b5f82825260208201905092915050565b8281835e5f83830152505050565b5f601f19601f8301169050919050565b5f610622826105e0565b61062c81856105ea565b935061063c8185602086016105fa565b61064581610608565b840191505092915050565b5f6060820190506106635f830186610507565b6106706020830185610507565b81810360408301526106828184610618565b9050949350505050565b5f6020820190508181035f8301526106a48184610618565b905092915050565b6106b5816105a7565b81146106bf575f5ffd5b50565b5f813590506106d0816106ac565b92915050565b5f602082840312156106eb576106ea61052f565b5b5f6106f8848285016106c2565b91505092915050565b5f6040820190506107145f830185610507565b6107216020830184610507565b9392505050565b7f4e487b71000000000000000000000000000000000000000000000000000000005f52602260045260245ffd5b5f600282049050600182168061076c57607f821691505b60208210810361077f5761077e610728565b5b5091905056fea264697066735822122057cd5ba8f53d5cc4e33cede74a590ef75ac9bb770db54c623afb60f65bb7759b64736f6c634300081e0033","linkReferences":{}},"methodIdentifiers":{"getLatest()":"c36af460","latestTimestamp()":"8205bf6a","latestValue()":"4ab5cc82","owner()":"8da5cb5b","renounceOwnership()":"715018a6","route()":"d96661ef","transferOwnership(address)":"f2fde38b","updatePrice(uint256)":"8d6cc56d"},"id":2}